:02000000C12914
:10000600710DF80DF90D7408F8027508031C750FCB
:10001600F902F00DF10D0F30FC00710DF80DF90D20
:100026007408701C1C28F8027508031C750FF90269
:100036002128F80775080318750FF907F00DF10D5B
:10004600FC0B102870182D287408F807750803187B
:08005600750FF9070000080016
:10005E00831203137408003A031D3E287508003AF4
:10006E00031D3E28FF30F0007F30F10097288312E9
:10007E000313FD01F901F80171087004031900342E
:10008E0071087506FA00FA1BFD09FB01F51F5428CD
:10009E00F409F509F40A0319F50AF11F5B28F009B2
:1000AE00F109F00A0319F10A71087504FA00FA1B36
:1000BE00702803207B188328FD1F0034F009F109F6
:1000CE00F00A0319F10AF809F909F80A0319F90AED
:1000DE000034F51F7F28F11B7B287108F90070088A
:1000EE00F800F101F0016328F101F001F00A00348B
:1000FE00F109F009FB0A6028F80A0319F90A7408D5
:10010E007802031D632875087902031D6328F9011F
:10011E00F801F00A0319F10AF11F63280000FF34F9
:02012E000800C7
:0E0130008312031323088A00220882000800AD
:10013E00831203138518E2280519E2280819AA2844
:10014E008818AA28C428881488160811081088113F
:10015E0008121530FB004B30FC00BE30FD00FD0BCD
:10016E00B628FC0BB628FB0BB62800000814881521
:10017E000811881088120812E2288819C928081A4E
:10018E00C928E22808160814081188108811881248
:10019E001530FB004B30FC00BE30FD00FD0BD528AA
:1001AE00FC0BD528FB0BD528000088160815081067
:0801BE008810881108120800E6
:1001C60098208A110A128000840AA20A0319A30A37
:0801D600F003031DE3280800FB
:1001DE0083120313851CC0290F30A0000030A1002C
:1001EE008030F000803021067002031D00292008A7
:1001FE00003C031859290A30F4000030F50020089D
:10020E00F0002108F1002F207808F0007908F100A5
:10021E007008A4007108A5000A30F4000030F50043
:10022E002008F0002108F1002F200430F3007008A0
:10023E00F200730803192729F20D7210FF3E2129CF
:10024E00720824078600FF3087008030F00080306F
:10025E0021067002031D35292008033C03183E2990
:10026E0008148815881008110812881244290816D7
:10027E0008148810081188128811851848298601DB
:10028E0059290830FB001B30FC002730FD00FD0B08
:10029E004E29FC0B4E29FB0B4E290130A002031CEC
:1002AE00A103F7281730A0000030A1008030F00025
:1002BE00803021067002031D66292008003C0318B9
:1002CE00BF2985186C298601BF290A30F400003039
:1002DE00F5002008F0002108F1002F207808F0002A
:1002EE007908F1007008A4007108A5000A30F40026
:1002FE000030F5002008F0002108F1002F20043016
:10030E00F3007008F200730803199129F20D7210B0
:10031E00FF3E8B29720824078600FF30870080304D
:10032E00F000803021067002031D9F292008033C37
:10033E000318A829081588160810881008128811A5
:10034E00AE29881488160810081108128811083072
:10035E00FB001B30FC002730FD00FD0BB429FC0B0D
:10036E00B429FB0BB4290130A002031CA1035D29A3
:04037E00EF2808005C
:1003820083120313A001A101073083169F003F309F
:1003920085008601870188013F308312850086012E
:1003A200FF3087008801051CD729D429EF209F2020
:0403B200D729DA2944
:02400E004A2F37
:00000001FF
